{
  "contractName": "ProductRegistry",
  "abi": [
    {
      "inputs": [],
      "stateMutability": "nonpayable",
      "type": "constructor"
    },
    {
      "inputs": [],
      "name": "owner",
      "outputs": [
        {
          "internalType": "address",
          "name": "",
          "type": "address"
        }
      ],
      "stateMutability": "view",
      "type": "function",
      "constant": true
    },
    {
      "inputs": [
        {
          "internalType": "uint256",
          "name": "",
          "type": "uint256"
        }
      ],
      "name": "productData",
      "outputs": [
        {
          "internalType": "string",
          "name": "productName",
          "type": "string"
        },
        {
          "internalType": "string",
          "name": "manufacturerName",
          "type": "string"
        },
        {
          "internalType": "uint256",
          "name": "manufacturerDate",
          "type": "uint256"
        },
        {
          "internalType": "uint256",
          "name": "productId",
          "type": "uint256"
        }
      ],
      "stateMutability": "view",
      "type": "function",
      "constant": true
    },
    {
      "inputs": [
        {
          "internalType": "uint256",
          "name": "productId",
          "type": "uint256"
        }
      ],
      "name": "doesExist",
      "outputs": [
        {
          "internalType": "bool",
          "name": "",
          "type": "bool"
        }
      ],
      "stateMutability": "view",
      "type": "function",
      "constant": true
    },
    {
      "inputs": [
        {
          "internalType": "string",
          "name": "name",
          "type": "string"
        },
        {
          "internalType": "string",
          "name": "manufacturerName",
          "type": "string"
        },
        {
          "internalType": "uint256",
          "name": "manufacturerDate",
          "type": "uint256"
        },
        {
          "internalType": "uint256",
          "name": "productId",
          "type": "uint256"
        }
      ],
      "name": "addProduct",
      "outputs": [],
      "stateMutability": "nonpayable",
      "type": "function"
    },
    {
      "inputs": [
        {
          "internalType": "string",
          "name": "name",
          "type": "string"
        },
        {
          "internalType": "string",
          "name": "manufacturerName",
          "type": "string"
        },
        {
          "internalType": "uint256",
          "name": "manufacturerDate",
          "type": "uint256"
        },
        {
          "internalType": "uint256",
          "name": "productId",
          "type": "uint256"
        }
      ],
      "name": "editProduct",
      "outputs": [],
      "stateMutability": "nonpayable",
      "type": "function"
    },
    {
      "inputs": [
        {
          "internalType": "uint256",
          "name": "productId",
          "type": "uint256"
        }
      ],
      "name": "deleteProduct",
      "outputs": [],
      "stateMutability": "nonpayable",
      "type": "function"
    },
    {
      "inputs": [
        {
          "internalType": "uint256",
          "name": "productId",
          "type": "uint256"
        }
      ],
      "name": "verifyProduct",
      "outputs": [
        {
          "internalType": "string",
          "name": "",
          "type": "string"
        },
        {
          "internalType": "string",
          "name": "",
          "type": "string"
        },
        {
          "internalType": "uint256",
          "name": "",
          "type": "uint256"
        }
      ],
      "stateMutability": "view",
      "type": "function",
      "constant": true
    }
  ],
  "bytecode": "0x608060405234801561001057600080fd5b5033600160006101000a81548173ffffffffffffffffffffffffffffffffffffffff021916908373ffffffffffffffffffffffffffffffffffffffff160217905550611195806100616000396000f3fe608060405234801561001057600080fd5b506004361061007d5760003560e01c80638da5cb5b1161005b5780638da5cb5b146100ec5780639f5ce9101461010a578063e8b721961461013d578063ed90c7b71461016d5761007d565b806301cecd141461008257806350296aac1461009e578063524e8462146100ba575b600080fd5b61009c60048036038101906100979190610a6d565b610189565b005b6100b860048036038101906100b39190610a6d565b6102de565b005b6100d460048036038101906100cf9190610b0c565b610409565b6040516100e393929190610bc7565b60405180910390f35b6100f46105cc565b6040516101019190610c4d565b60405180910390f35b610124600480360381019061011f9190610b0c565b6105f2565b6040516101349493929190610c68565b60405180910390f35b61015760048036038101906101529190610b0c565b610732565b6040516101649190610cd6565b60405180910390f35b61018760048036038101906101829190610b0c565b610760565b005b600160009054906101000a900473ffffffffffffffffffffffffffffffffffffffff1673ffffffffffffffffffffffffffffffffffffffff163373ffffffffffffffffffffffffffffffffffffffff1614610219576040517f08c379a000000000000000000000000000000000000000000000000000000000815260040161021090610d3d565b60405180910390fd5b61022281610732565b15610262576040517f08c379a000000000000000000000000000000000000000000000000000000000815260040161025990610dcf565b60405180910390fd5b60405180608001604052808581526020018481526020018381526020018281525060008083815260200190815260200160002060008201518160000190816102aa9190610ffb565b5060208201518160010190816102c09190610ffb565b50604082015181600201556060820151816003015590505050505050565b600160009054906101000a900473ffffffffffffffffffffffffffffffffffffffff1673ffffffffffffffffffffffffffffffffffffffff163373ffffffffffffffffffffffffffffffffffffffff161461036e576040517f08c379a000000000000000000000000000000000000000000000000000000000815260040161036590610d3d565b60405180910390fd5b61037781610732565b6103b6576040517f08c379a00000000000000000000000000000000000000000000000000000000081526004016103ad9061113f565b60405180910390fd5b60008060008381526020019081526020016000209050848160000190816103dd9190610ffb565b50838160010190816103ef9190610ffb565b508281600201819055508181600301819055505050505050565b606080600061041784610732565b610456576040517f08c379a000000000000000000000000000000000000000000000000000000000815260040161044d9061113f565b60405180910390fd5b600080600086815260200190815260200160002060405180608001604052908160008201805461048590610e1e565b80601f01602080910402602001604051908101604052809291908181526020018280546104b190610e1e565b80156104fe5780601f106104d3576101008083540402835291602001916104fe565b820191906000526020600020905b8154815290600101906020018083116104e157829003601f168201915b5050505050815260200160018201805461051790610e1e565b80601f016020809104026020016040519081016040528092919081815260200182805461054390610e1e565b80156105905780601f1061056557610100808354040283529160200191610590565b820191906000526020600020905b81548152906001019060200180831161057357829003601f168201915b50505050508152602001600282015481526020016003820154815250509050806000015181602001518260400151935093509350509193909250565b600160009054906101000a900473ffffffffffffffffffffffffffffffffffffffff1681565b600060205280600052604060002060009150905080600001805461061590610e1e565b80601f016020809104026020016040519081016040528092919081815260200182805461064190610e1e565b801561068e5780601f106106635761010080835404028352916020019161068e565b820191906000526020600020905b81548152906001019060200180831161067157829003601f168201915b5050505050908060010180546106a390610e1e565b80601f01602080910402602001604051908101604052809291908181526020018280546106cf90610e1e565b801561071c5780601f106106f15761010080835404028352916020019161071c565b820191906000526020600020905b8154815290600101906020018083116106ff57829003601f168201915b5050505050908060020154908060030154905084565b600080600080848152602001908152602001600020600001805461075590610e1e565b905014159050919050565b600160009054906101000a900473ffffffffffffffffffffffffffffffffffffffff1673ffffffffffffffffffffffffffffffffffffffff163373ffffffffffffffffffffffffffffffffffffffff16146107f0576040517f08c379a00000000000000000000000000000000000000000000000000000000081526004016107e790610d3d565b60405180910390fd5b6107f981610732565b610838576040517f08c379a000000000000000000000000000000000000000000000000000000000815260040161082f9061113f565b60405180910390fd5b6000808281526020019081526020016000206000808201600061085b9190610880565b60018201600061086b9190610880565b60028201600090556003820160009055505050565b50805461088c90610e1e565b6000825580601f1061089e57506108bd565b601f0160209004906000526020600020908101906108bc91906108c0565b5b50565b5b808211156108d95760008160009055506001016108c1565b5090565b6000604051905090565b600080fd5b600080fd5b600080fd5b600080fd5b6000601f19601f8301169050919050565b7f4e487b7100000000000000000000000000000000000000000000000000000000600052604160045260246000fd5b610944826108fb565b810181811067ffffffffffffffff821117156109635761096261090c565b5b80604052505050565b60006109766108dd565b9050610982828261093b565b919050565b600067ffffffffffffffff8211156109a2576109a161090c565b5b6109ab826108fb565b9050602081019050919050565b82818337600083830152505050565b60006109da6109d584610987565b61096c565b9050828152602081018484840111156109f6576109f56108f6565b5b610a018482856109b8565b509392505050565b600082601f830112610a1e57610a1d6108f1565b5b8135610a2e8482602086016109c7565b91505092915050565b6000819050919050565b610a4a81610a37565b8114610a5557600080fd5b50565b600081359050610a6781610a41565b92915050565b60008060008060808587031215610a8757610a866108e7565b5b600085013567ffffffffffffffff811115610aa557610aa46108ec565b5b610ab187828801610a09565b945050602085013567ffffffffffffffff811115610ad257610ad16108ec565b5b610ade87828801610a09565b9350506040610aef87828801610a58565b9250506060610b0087828801610a58565b91505092959194509250565b600060208284031215610b2257610b216108e7565b5b6000610b3084828501610a58565b91505092915050565b600081519050919050565b600082825260208201905092915050565b60005b83811015610b73578082015181840152602081019050610b58565b60008484015250505050565b6000610b8a82610b39565b610b948185610b44565b9350610ba4818560208601610b55565b610bad816108fb565b840191505092915050565b610bc181610a37565b82525050565b60006060820190508181036000830152610be18186610b7f565b90508181036020830152610bf58185610b7f565b9050610c046040830184610bb8565b949350505050565b600073ffffffffffffffffffffffffffffffffffffffff82169050919050565b6000610c3782610c0c565b9050919050565b610c4781610c2c565b82525050565b6000602082019050610c626000830184610c3e565b92915050565b60006080820190508181036000830152610c828187610b7f565b90508181036020830152610c968186610b7f565b9050610ca56040830185610bb8565b610cb26060830184610bb8565b95945050505050565b60008115159050919050565b610cd081610cbb565b82525050565b6000602082019050610ceb6000830184610cc7565b92915050565b7f556e617574686f72697365642041636365737300000000000000000000000000600082015250565b6000610d27601383610b44565b9150610d3282610cf1565b602082019050919050565b60006020820190508181036000830152610d5681610d1a565b9050919050565b7f50726f6475637420416c7265616479204578697374732057697468205468697360008201527f2049440000000000000000000000000000000000000000000000000000000000602082015250565b6000610db9602383610b44565b9150610dc482610d5d565b604082019050919050565b60006020820190508181036000830152610de881610dac565b9050919050565b7f4e487b7100000000000000000000000000000000000000000000000000000000600052602260045260246000fd5b60006002820490506001821680610e3657607f821691505b602082108103610e4957610e48610def565b5b50919050565b60008190508160005260206000209050919050565b60006020601f8301049050919050565b600082821b905092915050565b600060088302610eb17fffffffffffffffffffffffffffffffffffffffffffffffffffffffffffffffff82610e74565b610ebb8683610e74565b95508019841693508086168417925050509392505050565b6000819050919050565b6000610ef8610ef3610eee84610a37565b610ed3565b610a37565b9050919050565b6000819050919050565b610f1283610edd565b610f26610f1e82610eff565b848454610e81565b825550505050565b600090565b610f3b610f2e565b610f46818484610f09565b505050565b5b81811015610f6a57610f5f600082610f33565b600181019050610f4c565b5050565b601f821115610faf57610f8081610e4f565b610f8984610e64565b81016020851015610f98578190505b610fac610fa485610e64565b830182610f4b565b50505b505050565b600082821c905092915050565b6000610fd260001984600802610fb4565b1980831691505092915050565b6000610feb8383610fc1565b9150826002028217905092915050565b61100482610b39565b67ffffffffffffffff81111561101d5761101c61090c565b5b6110278254610e1e565b611032828285610f6e565b600060209050601f8311600181146110655760008415611053578287015190505b61105d8582610fdf565b8655506110c5565b601f19841661107386610e4f565b60005b8281101561109b57848901518255600182019150602085019450602081019050611076565b868310156110b857848901516110b4601f891682610fc1565b8355505b6001600288020188555050505b505050505050565b7f50726f64756374205769746820476976656e20494420446f65736e277420457860008201527f6973740000000000000000000000000000000000000000000000000000000000602082015250565b6000611129602383610b44565b9150611134826110cd565b604082019050919050565b600060208201905081810360008301526111588161111c565b905091905056fea26469706673582212203b9a04fa7466b1c4d7fac738909333ed4ae8fc4d9e36fca1ea6700adaf9b3c0f64736f6c63430008130033",
  "immutableReferences": {},
  "source": "// SPDX-License-Identifier: GPL-3.0\npragma solidity ^0.8.0;\n\ncontract ProductRegistry {\n    struct Product {\n        string productName;\n        string manufacturerName;\n        uint256 manufacturerDate;\n        uint256 productId;\n    }\n    mapping(uint256 => Product) public productData;\n    address public owner;\n\n    constructor() {\n        owner = msg.sender;\n    }\n\n    modifier onlyOwner() {\n        require(msg.sender == owner, \"Unauthorised Access\");\n        _;\n    }\n\n    function doesExist(uint256 productId) public view returns (bool) {\n        return bytes(productData[productId].productName).length != 0;\n    }\n\n    // add products\n    function addProduct(\n        string memory name,\n        string memory manufacturerName,\n        uint256 manufacturerDate,\n        uint256 productId\n    ) public onlyOwner {\n        require(!doesExist(productId), \"Product Already Exists With This ID\");\n        productData[productId] = Product(\n            name,\n            manufacturerName,\n            manufacturerDate,\n            productId\n        );\n    }\n\n    // update products\n    function editProduct(\n        string memory name,\n        string memory manufacturerName,\n        uint256 manufacturerDate,\n        uint256 productId\n    ) public onlyOwner {\n        require(doesExist(productId), \"Product With Given ID Doesn't Exist\");\n        Product storage updatedProduct = productData[productId];\n        updatedProduct.productName = name;\n        updatedProduct.manufacturerName = manufacturerName;\n        updatedProduct.manufacturerDate = manufacturerDate;\n        updatedProduct.productId = productId;\n    }\n\n    // delete products\n    function deleteProduct(uint256 productId) public onlyOwner {\n        require(doesExist(productId), \"Product With Given ID Doesn't Exist\");\n        delete productData[productId];\n    }\n\n    // verify product\n    function verifyProduct(\n        uint256 productId\n    ) public view returns (string memory, string memory, uint) {\n        require(doesExist(productId), \"Product With Given ID Doesn't Exist\");\n        Product memory currProduct = productData[productId];\n        return (\n            currProduct.productName,\n            currProduct.manufacturerName,\n            currProduct.manufacturerDate\n        );\n    }\n}\n",
  "sourcePath": "/home/suveshmoza/My Stuff/Projects/Blockchain/fake/contracts/ProductRegistry.sol",
  "compiler": {
    "name": "solc",
    "version": "0.8.19+commit.7dd6d404.Emscripten.clang"
  },
  "schemaVersion": "3.4.13",
  "updatedAt": "2023-05-31T15:41:23.549Z",
  "networkType": "ethereum",
  "devdoc": {
    "kind": "dev",
    "methods": {},
    "version": 1
  },
  "userdoc": {
    "kind": "user",
    "methods": {},
    "version": 1
  }
}